{
  "contractName": "TokenSwap",
  "abi": [
    {
      "inputs": [
        {
          "internalType": "address",
          "name": "_oldToken",
          "type": "address"
        },
        {
          "internalType": "address",
          "name": "_newToken",
          "type": "address"
        }
      ],
      "stateMutability": "nonpayable",
      "type": "constructor"
    },
    {
      "inputs": [],
      "name": "admin",
      "outputs": [
        {
          "internalType": "address",
          "name": "",
          "type": "address"
        }
      ],
      "stateMutability": "view",
      "type": "function",
      "constant": true
    },
    {
      "inputs": [],
      "name": "newToken",
      "outputs": [
        {
          "internalType": "contract IERC20",
          "name": "",
          "type": "address"
        }
      ],
      "stateMutability": "view",
      "type": "function",
      "constant": true
    },
    {
      "inputs": [],
      "name": "oldToken",
      "outputs": [
        {
          "internalType": "contract IERC20",
          "name": "",
          "type": "address"
        }
      ],
      "stateMutability": "view",
      "type": "function",
      "constant": true
    },
    {
      "inputs": [
        {
          "internalType": "uint256",
          "name": "_amount",
          "type": "uint256"
        }
      ],
      "name": "swap",
      "outputs": [],
      "stateMutability": "nonpayable",
      "type": "function"
    }
  ],
  "bytecode": "0x608060405234801561001057600080fd5b506040516109d03803806109d083398181016040528101906100329190610110565b336000806101000a81548173ffffffffffffffffffffffffffffffffffffffff021916908373ffffffffffffffffffffffffffffffffffffffff16021790555081600160006101000a81548173ffffffffffffffffffffffffffffffffffffffff021916908373ffffffffffffffffffffffffffffffffffffffff16021790555080600260006101000a81548173ffffffffffffffffffffffffffffffffffffffff021916908373ffffffffffffffffffffffffffffffffffffffff1602179055505050610195565b60008151905061010a8161017e565b92915050565b6000806040838503121561012357600080fd5b6000610131858286016100fb565b9250506020610142858286016100fb565b9150509250929050565b60006101578261015e565b9050919050565b600073ffffffffffffffffffffffffffffffffffffffff82169050919050565b6101878161014c565b811461019257600080fd5b50565b61082c806101a46000396000f3fe608060405234801561001057600080fd5b506004361061004c5760003560e01c806394b918de14610051578063b31c710a1461006d578063c42bd05a1461008b578063f851a440146100a9575b600080fd5b61006b60048036038101906100669190610516565b6100c7565b005b610075610364565b60405161008291906106d0565b60405180910390f35b61009361038a565b6040516100a091906106d0565b60405180910390f35b6100b16103b0565b6040516100be9190610655565b60405180910390f35b80600260009054906101000a900473ffffffffffffffffffffffffffffffffffffffff1673ffffffffffffffffffffffffffffffffffffffff1663dd62ed3e60008054906101000a900473ffffffffffffffffffffffffffffffffffffffff16306040518363ffffffff1660e01b8152600401610145929190610670565b60206040518083038186803b15801561015d57600080fd5b505afa158015610171573d6000803e3d6000fd5b505050506040513d601f19601f82011682018060405250810190610195919061053f565b10156101d6576040517f08c379a00000000000000000000000000000000000000000000000000000000081526004016101cd9061072b565b60405180910390fd5b80600160009054906101000a900473ffffffffffffffffffffffffffffffffffffffff1673ffffffffffffffffffffffffffffffffffffffff1663dd62ed3e33306040518363ffffffff1660e01b8152600401610234929190610670565b60206040518083038186803b15801561024c57600080fd5b505afa158015610260573d6000803e3d6000fd5b505050506040513d601f19601f82011682018060405250810190610284919061053f565b10156102c5576040517f08c379a00000000000000000000000000000000000000000000000000000000081526004016102bc9061070b565b60405180910390fd5b610313600160009054906101000a900473ffffffffffffffffffffffffffffffffffffffff163360008054906101000a900473ffffffffffffffffffffffffffffffffffffffff16846103d4565b610361600260009054906101000a900473ffffffffffffffffffffffffffffffffffffffff1660008054906101000a900473ffffffffffffffffffffffffffffffffffffffff1633846103d4565b50565b600160009054906101000a900473ffffffffffffffffffffffffffffffffffffffff1681565b600260009054906101000a900473ffffffffffffffffffffffffffffffffffffffff1681565b60008054906101000a900473ffffffffffffffffffffffffffffffffffffffff1681565b60008473ffffffffffffffffffffffffffffffffffffffff166323b872dd8585856040518463ffffffff1660e01b815260040161041393929190610699565b602060405180830381600087803b15801561042d57600080fd5b505af1158015610441573d6000803e3d6000fd5b505050506040513d601f19601f8201168201806040525081019061046591906104ed565b9050806104a7576040517f08c379a000000000000000000000000000000000000000000000000000000000815260040161049e906106eb565b60405180910390fd5b5050505050565b6000815190506104bd816107c8565b92915050565b6000813590506104d2816107df565b92915050565b6000815190506104e7816107df565b92915050565b6000602082840312156104ff57600080fd5b600061050d848285016104ae565b91505092915050565b60006020828403121561052857600080fd5b6000610536848285016104c3565b91505092915050565b60006020828403121561055157600080fd5b600061055f848285016104d8565b91505092915050565b6105718161075c565b82525050565b610580816107a4565b82525050565b600061059360158361074b565b91507f546f6b656e207472616e73666572206661696c656400000000000000000000006000830152602082019050919050565b60006105d3601b8361074b565b91507f4f6c6420546f6b656e20616c6c6f77616e636520746f6f206c6f7700000000006000830152602082019050919050565b600061061360168361074b565b91507f4e657720746f6b656e206e6f7420617070726f766564000000000000000000006000830152602082019050919050565b61064f8161079a565b82525050565b600060208201905061066a6000830184610568565b92915050565b60006040820190506106856000830185610568565b6106926020830184610568565b9392505050565b60006060820190506106ae6000830186610568565b6106bb6020830185610568565b6106c86040830184610646565b949350505050565b60006020820190506106e56000830184610577565b92915050565b6000602082019050818103600083015261070481610586565b9050919050565b60006020820190508181036000830152610724816105c6565b9050919050565b6000602082019050818103600083015261074481610606565b9050919050565b600082825260208201905092915050565b60006107678261077a565b9050919050565b60008115159050919050565b600073ffffffffffffffffffffffffffffffffffffffff82169050919050565b6000819050919050565b60006107af826107b6565b9050919050565b60006107c18261077a565b9050919050565b6107d18161076e565b81146107dc57600080fd5b50565b6107e88161079a565b81146107f357600080fd5b5056fea2646970667358221220490cb21f94368877d8032f8d238183596ea7fc5e31c2edead6c0674be0ae583464736f6c63430008000033",
  "immutableReferences": {},
  "source": "// SPDX-License-Identifier: MIT\npragma solidity ^0.8.0;\n\nimport \"@openzeppelin/contracts/token/ERC20/IERC20.sol\";\n\ncontract TokenSwap {\n    address public admin;\n    IERC20 public oldToken;\n    IERC20 public newToken;\n\n    constructor(address _oldToken, address _newToken) {\n        admin = msg.sender;\n        oldToken = IERC20(_oldToken);\n        newToken = IERC20(_newToken);\n    }\n\n    function swap(uint256 _amount) public {\n        // Double check if the admin have permision.\n        require(\n            newToken.allowance(admin, address(this)) >= _amount,\n            \"New token not approved\"\n        );\n        // Check if the sender have approve the old token spending for contract.\n        require(\n            oldToken.allowance(msg.sender, address(this)) >= _amount,\n            \"Old Token allowance too low\"\n        );\n        _safeTransferFrom(oldToken, msg.sender, admin, _amount);\n        _safeTransferFrom(newToken, admin, msg.sender, _amount);\n    }\n\n    function _safeTransferFrom(\n        IERC20 token,\n        address sender,\n        address recipient,\n        uint256 amount\n    ) private {\n        bool sent = token.transferFrom(sender, recipient, amount);\n        require(sent, \"Token transfer failed\");\n    }\n}\n",
  "sourcePath": "/home/ayoung/project/BEP20-migration/contracts/TokenSwap.sol",
  "compiler": {
    "name": "solc",
    "version": "0.8.0+commit.c7dfd78e.Emscripten.clang"
  },
  "schemaVersion": "3.3.4",
  "updatedAt": "2021-06-27T10:50:34.343Z",
  "networkType": "ethereum",
  "devdoc": {
    "kind": "dev",
    "methods": {},
    "version": 1
  },
  "userdoc": {
    "kind": "user",
    "methods": {},
    "version": 1
  }
}